{
  "contractName": "TodoList",
  "abi": [
    {
      "constant": true,
      "inputs": [],
      "name": "admin",
      "outputs": [
        {
          "name": "",
          "type": "address"
        }
      ],
      "payable": false,
      "stateMutability": "view",
      "type": "function"
    },
    {
      "inputs": [],
      "payable": false,
      "stateMutability": "nonpayable",
      "type": "constructor"
    },
    {
      "payable": false,
      "stateMutability": "nonpayable",
      "type": "fallback"
    },
    {
      "anonymous": false,
      "inputs": [
        {
          "indexed": false,
          "name": "message",
          "type": "string"
        }
      ],
      "name": "addedItems",
      "type": "event"
    },
    {
      "anonymous": false,
      "inputs": [
        {
          "indexed": false,
          "name": "message",
          "type": "string"
        }
      ],
      "name": "deletedItems",
      "type": "event"
    },
    {
      "anonymous": false,
      "inputs": [
        {
          "indexed": false,
          "name": "message",
          "type": "string"
        }
      ],
      "name": "status",
      "type": "event"
    },
    {
      "constant": false,
      "inputs": [
        {
          "name": "newAdmin",
          "type": "address"
        }
      ],
      "name": "changeAdmin",
      "outputs": [],
      "payable": false,
      "stateMutability": "nonpayable",
      "type": "function"
    },
    {
      "constant": false,
      "inputs": [
        {
          "name": "itemname",
          "type": "bytes32"
        }
      ],
      "name": "addItem",
      "outputs": [
        {
          "name": "success",
          "type": "bool"
        }
      ],
      "payable": false,
      "stateMutability": "nonpayable",
      "type": "function"
    },
    {
      "constant": false,
      "inputs": [
        {
          "name": "index",
          "type": "uint256"
        }
      ],
      "name": "deleteItem",
      "outputs": [
        {
          "name": "success",
          "type": "bool"
        }
      ],
      "payable": false,
      "stateMutability": "nonpayable",
      "type": "function"
    },
    {
      "constant": false,
      "inputs": [
        {
          "name": "index",
          "type": "uint256"
        }
      ],
      "name": "findItembyIndex",
      "outputs": [
        {
          "name": "",
          "type": "bool"
        }
      ],
      "payable": false,
      "stateMutability": "nonpayable",
      "type": "function"
    },
    {
      "constant": false,
      "inputs": [
        {
          "name": "name",
          "type": "bytes32"
        }
      ],
      "name": "findItem",
      "outputs": [
        {
          "name": "",
          "type": "bool"
        }
      ],
      "payable": false,
      "stateMutability": "nonpayable",
      "type": "function"
    },
    {
      "constant": false,
      "inputs": [
        {
          "name": "index",
          "type": "uint256"
        }
      ],
      "name": "getItem",
      "outputs": [
        {
          "name": "itemname",
          "type": "string"
        }
      ],
      "payable": false,
      "stateMutability": "nonpayable",
      "type": "function"
    },
    {
      "constant": false,
      "inputs": [],
      "name": "getTotalItems",
      "outputs": [
        {
          "name": "",
          "type": "uint256"
        }
      ],
      "payable": false,
      "stateMutability": "nonpayable",
      "type": "function"
    },
    {
      "constant": true,
      "inputs": [
        {
          "name": "x",
          "type": "bytes32"
        }
      ],
      "name": "bytes32ToString",
      "outputs": [
        {
          "name": "",
          "type": "string"
        }
      ],
      "payable": false,
      "stateMutability": "view",
      "type": "function"
    },
    {
      "constant": false,
      "inputs": [
        {
          "name": "source",
          "type": "string"
        }
      ],
      "name": "stringToBytes32",
      "outputs": [
        {
          "name": "result",
          "type": "bytes32"
        }
      ],
      "payable": false,
      "stateMutability": "nonpayable",
      "type": "function"
    },
    {
      "constant": false,
      "inputs": [],
      "name": "kill",
      "outputs": [],
      "payable": false,
      "stateMutability": "nonpayable",
      "type": "function"
    }
  ],
  "bytecode": "0x6060604052341561000f57600080fd5b33600260006101000a81548173ffffffffffffffffffffffffffffffffffffffff021916908373ffffffffffffffffffffffffffffffffffffffff160217905550610e788061005f6000396000f3006060604052600436106100af576000357c0100000000000000000000000000000000000000000000000000000000900463ffffffff16806307ccaa28146100bc5780632c95ad52146100fb578063310aac691461013a5780633129e7731461016357806341c0e1b5146101ff578063654fc833146102145780638f2839701461024f5780639201de5514610288578063cfb5192814610328578063f851a440146103a1578063fcef3007146103f6575b34156100ba57600080fd5b005b34156100c757600080fd5b6100e1600480803560001916906020019091905050610431565b604051808215151515815260200191505060405180910390f35b341561010657600080fd5b61012060048080356000191690602001909190505061055c565b604051808215151515815260200191505060405180910390f35b341561014557600080fd5b61014d6106c1565b6040518082815260200191505060405180910390f35b341561016e57600080fd5b61018460048080359060200190919050506106ce565b6040518080602001828103825283818151815260200191508051906020019080838360005b838110156101c45780820151818401526020810190506101a9565b50505050905090810190601f1680156101f15780820380516001836020036101000a031916815260200191505b509250505060405180910390f35b341561020a57600080fd5b61021261077e565b005b341561021f57600080fd5b6102356004808035906020019091905050610811565b604051808215151515815260200191505060405180910390f35b341561025a57600080fd5b610286600480803573ffffffffffffffffffffffffffffffffffffffff1690602001909190505061099d565b005b341561029357600080fd5b6102ad600480803560001916906020019091905050610a63565b6040518080602001828103825283818151815260200191508051906020019080838360005b838110156102ed5780820151818401526020810190506102d2565b50505050905090810190601f16801561031a5780820380516001836020036101000a031916815260200191505b509250505060405180910390f35b341561033357600080fd5b610383600480803590602001908201803590602001908080601f01602080910402602001604051908101604052809392919081815260200183838082843782019150505050505091905050610c50565b60405180826000191660001916815260200191505060405180910390f35b34156103ac57600080fd5b6103b4610c5e565b604051808273ffffffffffffffffffffffffffffffffffffffff1673ffffffffffffffffffffffffffffffffffffffff16815260200191505060405180910390f35b341561040157600080fd5b6104176004808035906020019091905050610c84565b604051808215151515815260200191505060405180910390f35b600080600090505b6001805490508110156104e9578260001916600080838152602001908152602001600020600001546000191614156104dc577fe8ca64f431a8cfb9e9c33860d1c005f5efdf340d799f119d831935b54620b42460405180806020018281038252600a8152602001807f6974656d20666f756e640000000000000000000000000000000000000000000081525060200191505060405180910390a160019150610556565b8080600101915050610439565b7fe8ca64f431a8cfb9e9c33860d1c005f5efdf340d799f119d831935b54620b42460405180806020018281038252600e8152602001807f6974656d206e6f7420666f756e6400000000000000000000000000000000000081525060200191505060405180910390a1600091505b50919050565b600080151561056a83610431565b151514156106505781600080600180549050815260200190815260200160002060000181600019169055506001805490506000806001805490508152602001908152602001600020600101819055507f9d56af4c39f69a21736bbf7988f35abfaaa59c5f400d68f620e1fbf39098b2f660405180806020018281038252600e8152602001807f6e6577206974656d20616464656400000000000000000000000000000000000081525060200191505060405180910390a1600180548060010182816106359190610da7565b91600052602060002090016000600180549050909190915055505b7fe8ca64f431a8cfb9e9c33860d1c005f5efdf340d799f119d831935b54620b4246040518080602001828103825260128152602001807f6974656d20616c7265616479206578697374000000000000000000000000000081525060200191505060405180910390a160009050919050565b6000600180549050905090565b6106d6610dd3565b600115156106e383610c84565b151514156107105761070960008084815260200190815260200160002060000154610a63565b9050610779565b7fe8ca64f431a8cfb9e9c33860d1c005f5efdf340d799f119d831935b54620b4246040518080602001828103825260148152602001807f6974656d206e6f7420696e20746865206c69737400000000000000000000000081525060200191505060405180910390a15b919050565b600260009054906101000a900473ffffffffffffffffffffffffffffffffffffffff1673ffffffffffffffffffffffffffffffffffffffff163373ffffffffffffffffffffffffffffffffffffffff16141561080f57600260009054906101000a900473ffffffffffffffffffffffffffffffffffffffff1673ffffffffffffffffffffffffffffffffffffffff16ff5b565b6000806001151561082184610c84565b1515141561092a5760008060018080549050038152602001908152602001600020905082816001018190555080600080858152602001908152602001600020600082015481600001906000191690556001820154816001015590505060018054809190600190036108929190610de7565b507ff853cc1599b0661bf85e575cef7e6768c62fecca6fa8568ee452a4cc291ec41f6040518080602001828103825260228152602001807f73656c6563746564206974656d2064656c65746564207375636365737366756c81526020017f6c7900000000000000000000000000000000000000000000000000000000000081525060400191505060405180910390a160019150610997565b7fe8ca64f431a8cfb9e9c33860d1c005f5efdf340d799f119d831935b54620b4246040518080602001828103825260168152602001807f6974656d20636f756c64206e6f742064656c657465640000000000000000000081525060200191505060405180910390a1600091505b50919050565b600260009054906101000a900473ffffffffffffffffffffffffffffffffffffffff1673ffffffffffffffffffffffffffffffffffffffff163373ffffffffffffffffffffffffffffffffffffffff161415156109f957600080fd5b60008173ffffffffffffffffffffffffffffffffffffffff1614151515610a1f57600080fd5b80600260006101000a81548173ffffffffffffffffffffffffffffffffffffffff021916908373ffffffffffffffffffffffffffffffffffffffff16021790555050565b610a6b610dd3565b610a73610e13565b6000806000610a80610e13565b6020604051805910610a8f5750595b9080825280601f01601f1916602001820160405250945060009350600092505b6020831015610b6d578260080260020a876001900402600102915060007f010000000000000000000000000000000000000000000000000000000000000002827effffffffffffffffffffffffffffffffffffffffffffffffffffffffffffff1916141515610b6057818585815181101515610b2757fe5b9060200101907effffffffffffffffffffffffffffffffffffffffffffffffffffffffffffff1916908160001a90535083806001019450505b8280600101935050610aaf565b83604051805910610b7b5750595b9080825280601f01601f19166020018201604052509050600092505b83831015610c43578483815181101515610bad57fe5b9060200101517f010000000000000000000000000000000000000000000000000000000000000090047f0100000000000000000000000000000000000000000000000000000000000000028184815181101515610c0657fe5b9060200101907effffffffffffffffffffffffffffffffffffffffffffffffffffffffffffff1916908160001a9053508280600101935050610b97565b8095505050505050919050565b600060208201519050919050565b600260009054906101000a900473ffffffffffffffffffffffffffffffffffffffff1681565b600080600090505b600180549050811015610d345782600080838152602001908152602001600020600101541415610d27577fe8ca64f431a8cfb9e9c33860d1c005f5efdf340d799f119d831935b54620b42460405180806020018281038252600a8152602001807f6974656d20666f756e640000000000000000000000000000000000000000000081525060200191505060405180910390a160019150610da1565b8080600101915050610c8c565b7fe8ca64f431a8cfb9e9c33860d1c005f5efdf340d799f119d831935b54620b42460405180806020018281038252600e8152602001807f6974656d206e6f7420666f756e6400000000000000000000000000000000000081525060200191505060405180910390a1600091505b50919050565b815481835581811511610dce57818360005260206000209182019101610dcd9190610e27565b5b505050565b602060405190810160405280600081525090565b815481835581811511610e0e57818360005260206000209182019101610e0d9190610e27565b5b505050565b602060405190810160405280600081525090565b610e4991905b80821115610e45576000816000905550600101610e2d565b5090565b905600a165627a7a723058203137df9fc9b3e780e99a8014c5517749835cf77e608d20dda3be483986ceb4dc0029",
  "source": "pragma solidity ^0.4.18;\r\n\r\ncontract TodoList {\r\n    \r\n    event addedItems(string message);\r\n    event deletedItems(string message);\r\n    event status(string message);\r\n    \r\n    struct Item {\r\n        bytes32 itemname;\r\n        uint itemindex;\r\n    }\r\n    \r\n    mapping(uint => Item) items;\r\n    uint[] indexes; //indexes array store the index of the mapping \r\n    \r\n     address public admin;\r\n\r\n    modifier onlyAdmin() {\r\n        require(msg.sender == admin);\r\n        _; \r\n    }\r\n    \r\n    function changeAdmin(address newAdmin) onlyAdmin {\r\n        require(newAdmin != 0x0);\r\n        admin = newAdmin;\r\n    }\r\n    \r\n    function TodoList() {\r\n        admin = msg.sender; \r\n    }\r\n    \r\n    function addItem(bytes32 itemname) returns (bool success){\r\n        if(findItem(itemname) == false) {\r\n            items[indexes.length].itemname = itemname;\r\n            items[indexes.length].itemindex = (indexes.length);\r\n             addedItems(\"new item added\");\r\n            indexes.push(indexes.length); \r\n        }\r\n         status(\"item already exist\"); \r\n        return false;\r\n    }\r\n    \r\n    function deleteItem(uint index) returns (bool success) {\r\n        if ( findItembyIndex(index) == true ) {\r\n            Item storage lastiteminthelist = items[indexes.length - 1];\r\n            lastiteminthelist.itemindex = index; \r\n            items[index] = lastiteminthelist;\r\n            indexes.length--; \r\n            \r\n             deletedItems(\"selected item deleted successfully\");\r\n            return true; \r\n        }\r\n         status(\"item could not deleted\");\r\n        return false;\r\n    }\r\n    \r\n    function findItembyIndex(uint index) returns (bool) {\r\n        for(uint i=0; i<indexes.length; i++) {\r\n            if(items[i].itemindex == index) {\r\n                 status(\"item found\");\r\n                return true; \r\n            }\r\n        }\r\n         status(\"item not found\");\r\n        return false; \r\n    }\r\n    \r\n    function findItem(bytes32 name) returns (bool) {\r\n        for (uint i=0; i<indexes.length; i++) {\r\n            if(items[i].itemname == name) {\r\n                 status(\"item found\");\r\n                return true; \r\n            }\r\n        }\r\n         status(\"item not found\");\r\n        return false; \r\n    }\r\n    \r\n    function getItem(uint index)  returns (string itemname) {\r\n        if(findItembyIndex(index) == true) {\r\n            return bytes32ToString(items[index].itemname); \r\n        }\r\n         status(\"item not in the list\");\r\n    }\r\n    \r\n    function getTotalItems() returns (uint) {\r\n        return indexes.length;\r\n        \r\n    }\r\n\r\n    /*\r\n\t *This is a helper function which is used to convert the given bytes32 to string which is later required when we want to retrieve the output as a string \r\n\t *@param {bytes32} x\r\n\t * any bytes32 character\r\n\t *@return {string}\r\n\t */\r\n\tfunction bytes32ToString(bytes32 x) constant returns(string) {\r\n\t\tbytes memory bytesString = new bytes(32);\r\n\t\tuint charCount = 0;\r\n\t\tfor (uint j = 0; j < 32; j++) {\r\n\t\t\tbyte char = byte(bytes32(uint(x) * 2 ** (8 * j)));\r\n\t\t\tif (char != 0) {\r\n\t\t\t\tbytesString[charCount] = char;\r\n\t\t\t\tcharCount++;\r\n\t\t\t}\r\n\t\t}\r\n\t\tbytes memory bytesStringTrimmed = new bytes(charCount);\r\n\t\tfor (j = 0; j < charCount; j++) {\r\n\t\t\tbytesStringTrimmed[j] = bytesString[j];\r\n\t\t}\r\n\t\treturn string(bytesStringTrimmed);\r\n\t}\r\n\r\n    /*\r\n\t *This is a helper function which converts string to bytes32\r\n\t *@param {string memory} source\r\n\t *string data type \r\n\t *@return {bytes32} result\r\n\t *result in bytes32\r\n\t */\r\n\tfunction stringToBytes32(string memory source) returns(bytes32 result) {\r\n\t\tassembly {\r\n\t\t\tresult: = mload(add(source, 32))\r\n\t\t}\r\n\t}\r\n    \r\n    /*\r\n\t *This function kills the contract and the remaining funds of the contract is recovered back to the admin\r\n\t *\r\n\t */\r\n\tfunction kill() {\r\n\t\tif (msg.sender == admin) {\r\n\t\t\tselfdestruct(admin);\r\n\t\t}\r\n\t}\r\n\r\n\t/*\r\n\t *  This is a fallback function, which rejects any ether sent to it.It is good practise to include such a function for every contract\r\n\t * in order not to loose Ether.  \r\n\t *@return {}\r\n\t */\r\n\r\n\tfunction() {\r\n\t\treturn;\r\n\t}\r\n\r\n\r\n    \r\n}\r\n",
  "sourcePath": "C:\\todolist_dapp\\contracts\\TodoList.sol",
  "compiler": {
    "name": "solc",
    "version": "0.4.19+commit.c4cbbb05.Emscripten.clang"
  },
  "schemaVersion": "1.0.1",
  "updatedAt": "2018-04-22T05:14:46.077Z"
}