{
  "contractName": "TodoList",
  "abi": [
    {
      "inputs": [],
      "stateMutability": "nonpayable",
      "type": "constructor"
    },
    {
      "anonymous": false,
      "inputs": [
        {
          "indexed": false,
          "internalType": "string",
          "name": "message",
          "type": "string"
        }
      ],
      "name": "addedItems",
      "type": "event"
    },
    {
      "anonymous": false,
      "inputs": [
        {
          "indexed": false,
          "internalType": "string",
          "name": "message",
          "type": "string"
        }
      ],
      "name": "deletedItems",
      "type": "event"
    },
    {
      "anonymous": false,
      "inputs": [
        {
          "indexed": false,
          "internalType": "string",
          "name": "message",
          "type": "string"
        }
      ],
      "name": "status",
      "type": "event"
    },
    {
      "inputs": [],
      "name": "admin",
      "outputs": [
        {
          "internalType": "address",
          "name": "",
          "type": "address"
        }
      ],
      "stateMutability": "view",
      "type": "function",
      "constant": true
    },
    {
      "inputs": [
        {
          "internalType": "bytes32",
          "name": "itemname",
          "type": "bytes32"
        }
      ],
      "name": "addItem",
      "outputs": [
        {
          "internalType": "bool",
          "name": "success",
          "type": "bool"
        }
      ],
      "stateMutability": "nonpayable",
      "type": "function"
    },
    {
      "inputs": [
        {
          "internalType": "uint256",
          "name": "index",
          "type": "uint256"
        }
      ],
      "name": "deleteItem",
      "outputs": [
        {
          "internalType": "bool",
          "name": "success",
          "type": "bool"
        }
      ],
      "stateMutability": "nonpayable",
      "type": "function"
    },
    {
      "inputs": [
        {
          "internalType": "uint256",
          "name": "index",
          "type": "uint256"
        }
      ],
      "name": "findItembyIndex",
      "outputs": [
        {
          "internalType": "bool",
          "name": "",
          "type": "bool"
        }
      ],
      "stateMutability": "nonpayable",
      "type": "function"
    },
    {
      "inputs": [
        {
          "internalType": "bytes32",
          "name": "name",
          "type": "bytes32"
        }
      ],
      "name": "findItem",
      "outputs": [
        {
          "internalType": "bool",
          "name": "",
          "type": "bool"
        }
      ],
      "stateMutability": "nonpayable",
      "type": "function"
    },
    {
      "inputs": [
        {
          "internalType": "uint256",
          "name": "index",
          "type": "uint256"
        }
      ],
      "name": "getItem",
      "outputs": [
        {
          "internalType": "string",
          "name": "itemname",
          "type": "string"
        }
      ],
      "stateMutability": "nonpayable",
      "type": "function"
    },
    {
      "inputs": [],
      "name": "getTotalItems",
      "outputs": [
        {
          "internalType": "uint256",
          "name": "",
          "type": "uint256"
        }
      ],
      "stateMutability": "view",
      "type": "function",
      "constant": true
    },
    {
      "inputs": [
        {
          "internalType": "bytes32",
          "name": "x",
          "type": "bytes32"
        }
      ],
      "name": "bytes32ToString",
      "outputs": [
        {
          "internalType": "string",
          "name": "",
          "type": "string"
        }
      ],
      "stateMutability": "pure",
      "type": "function",
      "constant": true
    }
  ],
  "bytecode": "0x608060405234801561001057600080fd5b5033600260006101000a81548173ffffffffffffffffffffffffffffffffffffffff021916908373ffffffffffffffffffffffffffffffffffffffff160217905550610ad3806100616000396000f3fe608060405234801561001057600080fd5b50600436106100885760003560e01c8063654fc8331161005b578063654fc833146101da5780639201de551461021e578063f851a440146102c5578063fcef3007146102f957610088565b806307ccaa281461008d5780632c95ad52146100d1578063310aac69146101155780633129e77314610133575b600080fd5b6100b9600480360360208110156100a357600080fd5b810190808035906020019092919050505061033d565b60405180821515815260200191505060405180910390f35b6100fd600480360360208110156100e757600080fd5b8101908080359060200190929190505050610461565b60405180821515815260200191505060405180910390f35b61011d6105c1565b6040518082815260200191505060405180910390f35b61015f6004803603602081101561014957600080fd5b81019080803590602001909291905050506105ce565b6040518080602001828103825283818151815260200191508051906020019080838360005b8381101561019f578082015181840152602081019050610184565b50505050905090810190601f1680156101cc5780820380516001836020036101000a031916815260200191505b509250505060405180910390f35b610206600480360360208110156101f057600080fd5b8101908080359060200190929190505050610678565b60405180821515815260200191505060405180910390f35b61024a6004803603602081101561023457600080fd5b810190808035906020019092919050505061077a565b6040518080602001828103825283818151815260200191508051906020019080838360005b8381101561028a57808201518184015260208101905061026f565b50505050905090810190601f1680156102b75780820380516001836020036101000a031916815260200191505b509250505060405180910390f35b6102cd610931565b604051808273ffffffffffffffffffffffffffffffffffffffff16815260200191505060405180910390f35b6103256004803603602081101561030f57600080fd5b8101908080359060200190929190505050610957565b60405180821515815260200191505060405180910390f35b600080600090505b6001805490508110156103ee57826000808381526020019081526020016000206000015414156103e1577fe8ca64f431a8cfb9e9c33860d1c005f5efdf340d799f119d831935b54620b42460405180806020018281038252600a8152602001807f6974656d20666f756e640000000000000000000000000000000000000000000081525060200191505060405180910390a1600191505061045c565b8080600101915050610345565b507fe8ca64f431a8cfb9e9c33860d1c005f5efdf340d799f119d831935b54620b42460405180806020018281038252600e8152602001807f6974656d206e6f7420666f756e6400000000000000000000000000000000000081525060200191505060405180910390a1600090505b919050565b600080151561046f8361033d565b1515141561055057816000806001805490508152602001908152602001600020600001819055506001805490506000806001805490508152602001908152602001600020600101819055507f9d56af4c39f69a21736bbf7988f35abfaaa59c5f400d68f620e1fbf39098b2f660405180806020018281038252600e8152602001807f6e6577206974656d20616464656400000000000000000000000000000000000081525060200191505060405180910390a16001808054905090806001815401808255809150506001900390600052602060002001600090919091909150555b7fe8ca64f431a8cfb9e9c33860d1c005f5efdf340d799f119d831935b54620b4246040518080602001828103825260128152602001807f6974656d20616c7265616479206578697374000000000000000000000000000081525060200191505060405180910390a160009050919050565b6000600180549050905090565b6060600115156105dd83610957565b1515141561060a576106036000808481526020019081526020016000206000015461077a565b9050610673565b7fe8ca64f431a8cfb9e9c33860d1c005f5efdf340d799f119d831935b54620b4246040518080602001828103825260148152602001807f6974656d206e6f7420696e20746865206c69737400000000000000000000000081525060200191505060405180910390a15b919050565b60006001151561068783610957565b1515141561070857600080838152602001908152602001600020600080820160009055600182016000905550507ff853cc1599b0661bf85e575cef7e6768c62fecca6fa8568ee452a4cc291ec41f604051808060200182810382526022815260200180610a7c6022913960400191505060405180910390a160019050610775565b7fe8ca64f431a8cfb9e9c33860d1c005f5efdf340d799f119d831935b54620b4246040518080602001828103825260168152602001807f6974656d20636f756c64206e6f742064656c657465640000000000000000000081525060200191505060405180910390a1600090505b919050565b606080602067ffffffffffffffff8111801561079557600080fd5b506040519080825280601f01601f1916602001820160405280156107c85781602001600182028036833780820191505090505b5090506000805b602081101561086b5760008160080260020a8660001c0260001b9050600060f81b817effffffffffffffffffffffffffffffffffffffffffffffffffffffffffffff19161461085d578084848151811061082557fe5b60200101907effffffffffffffffffffffffffffffffffffffffffffffffffffffffffffff1916908160001a90535082806001019350505b5080806001019150506107cf565b5060608167ffffffffffffffff8111801561088557600080fd5b506040519080825280601f01601f1916602001820160405280156108b85781602001600182028036833780820191505090505b50905060005b82811015610925578381815181106108d257fe5b602001015160f81c60f81b8282815181106108e957fe5b60200101907effffffffffffffffffffffffffffffffffffffffffffffffffffffffffffff1916908160001a90535080806001019150506108be565b50809350505050919050565b600260009054906101000a900473ffffffffffffffffffffffffffffffffffffffff1681565b600080600090505b600180549050811015610a0857826000808381526020019081526020016000206001015414156109fb577fe8ca64f431a8cfb9e9c33860d1c005f5efdf340d799f119d831935b54620b42460405180806020018281038252600a8152602001807f6974656d20666f756e640000000000000000000000000000000000000000000081525060200191505060405180910390a16001915050610a76565b808060010191505061095f565b507fe8ca64f431a8cfb9e9c33860d1c005f5efdf340d799f119d831935b54620b42460405180806020018281038252600e8152602001807f6974656d206e6f7420666f756e6400000000000000000000000000000000000081525060200191505060405180910390a1600090505b91905056fe73656c6563746564206974656d2064656c65746564207375636365737366756c6c79a26469706673582212200df1ca05cd47b99678c3582723fe157f40f86f9d47329245b9afce532949c67664736f6c63430007000033",
  "immutableReferences": {},
  "source": "// SPDX-License-Identifier: MIT\r\npragma solidity >=0.4.21 <=0.7.0;\r\n\r\ncontract TodoList {\r\n    \r\n    event addedItems(string message);\r\n    event deletedItems(string message);\r\n    event status(string message);\r\n\r\n    //struct Item holds an information about a particular todos\r\n    struct Item {\r\n        bytes32 itemname;\r\n        uint itemindex;\r\n    }\r\n    \r\n    //items mapping stores the information about a particualr item list on the basis of its index\r\n    mapping(uint => Item) items;\r\n    uint[] indexes; //indexes array store the index of the mapping \r\n    \r\n     address public admin;\r\n\r\n    /*\r\n\t *This is a special type of func called modifier which is used to restrict the execution of certain transaction, where the admin only have the rights to do so\r\n\t *\r\n\t */\r\n    modifier onlyAdmin() {\r\n        require(msg.sender == admin);\r\n        _; \r\n    }\r\n    \r\n    /*\r\n\t *only admin can change the ownership of the contract\r\n\t * @param {address} newAdmin\r\n\t * address of the admin \r\n\t *\r\n\t */\r\n   \r\n    \r\n    constructor() {\r\n        admin = msg.sender; \r\n    }\r\n    /*\r\n\t *This function is used to add todo item list to the blockchain\r\n\t *@return {bool} success\r\n\t * true if succeed otherwise false\r\n\t */\r\n    function addItem(bytes32 itemname) public returns (bool success){\r\n        if(findItem(itemname) == false) {\r\n            items[indexes.length].itemname = itemname;\r\n            items[indexes.length].itemindex = (indexes.length);\r\n             emit addedItems(\"new item added\");\r\n            indexes.push(indexes.length); \r\n        }\r\n         emit status(\"item already exist\"); \r\n        return false;\r\n    }\r\n    \r\n    /*\r\n\t *This function is used to delete todo item list from the blockchain\r\n\t *@return {bool} success\r\n\t * true if succeed otherwise false\r\n\t */\r\n    function deleteItem(uint index) public returns (bool success) {\r\n        if ( findItembyIndex(index) == true ) {\r\n            delete items[index];\r\n             emit deletedItems(\"selected item deleted successfully\");\r\n            return true; \r\n        }\r\n         emit status(\"item could not deleted\");\r\n        return false;\r\n    }\r\n    /*\r\n\t *This function checks if item already exist by its index\r\n\t * @param {uint} index\r\n\t * index of the item  in uint\r\n\t *@return {bool}\r\n\t *a boolean value\r\n\t */\r\n    function findItembyIndex(uint index) public  returns (bool) {\r\n        for(uint i=0; i<indexes.length; i++) {\r\n            if(items[i].itemindex == index) {\r\n                emit  status(\"item found\");\r\n                return true; \r\n            }\r\n        }\r\n         emit status(\"item not found\");\r\n        return false; \r\n    }\r\n    /*\r\n\t *This function checks if item already exist by its name\r\n\t * @param {bytes32} name\r\n\t * name of the item  in uint\r\n\t *@return {bool}\r\n\t *a boolean value\r\n\t */\r\n    function findItem(bytes32 name) public returns (bool) {\r\n        for (uint i=0; i<indexes.length; i++) {\r\n            if(items[i].itemname == name) {\r\n                emit  status(\"item found\");\r\n                return true; \r\n            }\r\n        }\r\n         emit status(\"item not found\");\r\n        return false; \r\n    }\r\n    /*\r\n\t *This function retrieves the name of the todo list , provided the index of a item and is converted to string\r\n\t *@param {uint} index\r\n\t *index of the item\r\n\t *@return {string} itemname\r\n\t * name of the item\r\n\t */\r\n    function getItem(uint index)  public returns (string memory itemname) {\r\n        if(findItembyIndex(index) == true) {\r\n            return bytes32ToString(items[index].itemname); \r\n        }\r\n         emit status(\"item not in the list\");\r\n    }\r\n    \r\n    /*\r\n\t *This function returns a number of todos added to the blockchain\r\n\t *@return {uint256} length\r\n\t *the number of items added to the blockchain\r\n\t */\r\n    function getTotalItems() public view returns (uint) {\r\n        return indexes.length;\r\n        \r\n    }\r\n\r\n    /*\r\n\t *This is a helper function which is used to convert the given bytes32 to string which is later required when we want to retrieve the output as a string \r\n\t *@param {bytes32} x\r\n\t * any bytes32 character\r\n\t *@return {string}\r\n\t */\r\n\tfunction bytes32ToString(bytes32 x) public pure returns(string memory) {\r\n\t\tbytes memory bytesString = new bytes(32);\r\n\t\tuint charCount = 0;\r\n\t\tfor (uint j = 0; j < 32; j++) {\r\n\t\t\tbyte char = byte(bytes32(uint(x) * 2 ** (8 * j)));\r\n\t\t\tif (char != 0) {\r\n\t\t\t\tbytesString[charCount] = char;\r\n\t\t\t\tcharCount++;\r\n\t\t\t}\r\n\t\t}\r\n\t\tbytes memory bytesStringTrimmed = new bytes(charCount);\r\n\t\tfor (uint j = 0; j < charCount; j++) {\r\n\t\t\tbytesStringTrimmed[j] = bytesString[j];\r\n\t\t}\r\n\t\treturn string(bytesStringTrimmed);\r\n\t}\r\n\r\n    /*\r\n\t *This is a helper function which converts string to bytes32\r\n\t *@param {string memory} source\r\n\t *string data type \r\n\t *@return {bytes32} result\r\n\t *result in bytes32\r\n\t */\r\n\t\r\n\t/*\r\n\t *  This is a fallback function, which rejects any ether sent to it.It is good Ballotpractise to include such a function for every contract\r\n\t * in order not to loose Ether.  \r\n\t *@return {}\r\n\t */\r\n\r\n\t/*\r\n\t *  This is a fallback function, which rejects any ether sent to it.It is good practise to include such a function for every contract\r\n\t * in order not to loose Ether.  \r\n\t *@return {}\r\n\t */\r\n    \r\n}\r\n",
  "sourcePath": "C:/todolist_dapp/contracts/TodoList.sol",
  "compiler": {
    "name": "solc",
    "version": "0.7.0+commit.9e61f92b.Emscripten.clang"
  },
  "schemaVersion": "3.2.3",
  "updatedAt": "2020-09-04T16:37:06.568Z",
  "networkType": "ethereum",
  "devdoc": {
    "kind": "dev",
    "methods": {},
    "version": 1
  },
  "userdoc": {
    "kind": "user",
    "methods": {},
    "version": 1
  }
}